:03000000020800F3
:0C080000787FE4F6D8FD75810A020847F5
:0308E100010AFE0B
:1008C70075890975B80275A88275A0FE758AB07515
:0A08D7008C3C758810850AA080FB98
:03000B0002088C5C
:10088C00C0E0C0D075D000C0070509E509700205AD
:10089C0008640A4508701DAFA0EF647F600AE50A82
:1008AC0025E0F50A050A8006E50A25E0F50A750833
:0B08BC0000750900D007D0D0D0E0325A
:10080C000208C7E493A3F8E493A34003F68001F233
:10081C0008DFF48029E493A3F85407240CC8C333ED
:10082C00C4540F4420C8834004F456800146F6DFBC
:10083C00E4800B01020408102040809008E1E47E63
:10084C00019360BCA3FF543F30E509541FFEE493B1
:10085C00A360010ECF54C025E060A840B8E493A378
:10086C00FAE493A3F8E493A3C8C582C8CAC583CAA3
:10087C00F0A3C8C582C8CAC583CADFE9DEE780BE5B
:0108E4000013
:00000001FF
