:03000000020800F3
:0C080000787FE4F6D8FD75810A020847F5
:0308D900010AFE13
:1008BF0075890975B80275A88275A0FE758AB0751D
:0A08CF008C3C758810850AA080FBA0
:03000B0002088C5C
:10088C00C0E0C0D00509E50970020508640A4508F6
:10089C00701CE5A0647F600AE50A25E0F50A050AEC
:1008AC008006E50A25E0F50A750800750900D0D028
:0308BC00D0E03257
:10080C000208BFE493A3F8E493A34003F68001F23B
:10081C0008DFF48029E493A3F85407240CC8C333ED
:10082C00C4540F4420C8834004F456800146F6DFBC
:10083C00E4800B01020408102040809008D9E47E6B
:10084C00019360BCA3FF543F30E509541FFEE493B1
:10085C00A360010ECF54C025E060A840B8E493A378
:10086C00FAE493A3F8E493A3C8C582C8CAC583CAA3
:10087C00F0A3C8C582C8CAC583CADFE9DEE780BE5B
:0108DC00001B
:00000001FF
