:0300000002087E75
:0C087E00787FE4F6D8FD75810B020800BD
:040895000C06030941
:10080000E5A0C3943250087508127509C0803AE516
:10081000A0C394645008750809750960802BE5A091
:10082000C3949650087508047509B0801CE5A0C3F0
:1008300094C85008750802750958800DE5A0C39446
:0E084000FA500675080175092C12084E80B298
:10084E00E4F50AF50B7495250BF5827408350AF557
:10085E0083E493F590AF09AE0812088A050BE50BF9
:0F086E007002050AC39404E50A6480948040D6A2
:01087D002258
:0B088A00EF1FAC0670011E4C70F62240
:00000001FF
