:030000000208CF24
:0C08CF00787FE4F6D8FD75814C02091614
:1009C100C181C1800140000A326531343130343097
:1009D1003634000A430D0A436F727265637400086E
:0F09E1002A0D0A57726F6E6700043C000D000A62
:06080000120A133001FD95
:10080600C202C201E4F541F542AF4274212FF8E677
:10081600FE74322FF8E66E6004D202800E0542E5C1
:1008260042700205416409454170DE20024CE4F540
:1008360041F5423000FDC20074432542F8E6F599C1
:100846000542E542700205416409454170E5E4F55B
:1008560041F542C3E5429402E54164809480509D8F
:100866003000FDC200E54225E0243CF808E6F59993
:100876000542E54270DD054180D9E4F541F5423097
:1008860000FDC200742A2542F8E6F5990542E542C4
:10089600700205416407454170E5E4F541F542C340
:1008A600E5429402E54164809480400302080330E7
:1008B60000FDC200E54225E0243CF808E6F599056E
:0908C60042E54270DA054180D6DA
:0F0A1300759850758920758DE6D28E75A8902242
:0300230002095B74
:10095B00C0E0C0F0C083C082C0D075D000C000C062
:10096B0001C002C003C004C005C006C007309827F1
:10097B00C298AF40054074212FF8A69974202540EA
:10098B00F8E6F5A0E54075F0091209F185F040E5B0
:10099B00407008D2018004C299D200D007D006D093
:1009AB0005D004D003D002D001D000D0D0D082D05B
:0609BB0083D0F0D0E03211
:1008DB00020800E493A3F8E493A34003F68001F22B
:1008EB0008DFF48029E493A3F85407240CC8C3331E
:1008FB00C4540F4420C8834004F456800146F6DFED
:10090B00E4800B01020408102040809009C1E47EB2
:10091B00019360BCA3FF543F30E509541FFEE493E1
:10092B00A360010ECF54C025E060A840B8E493A3A8
:10093B00FAE493A3F8E493A3C8C582C8CAC583CAD3
:10094B00F0A3C8C582C8CAC583CADFE9DEE780BE8B
:0109F0000006
:1009F100C2D530F707B2D563F0FF05F030E70CB28E
:100A0100D5F4048463F0FF05F080018430D502F44D
:020A11000422BD
:00000001FF
