:03000000020B4DA3
:0C0B4D00787FE4F6D8FD758132020B942D
:100ABB004C4F57004D4944444C450048494748006A
:100ACB003D003D3D003D3D3D003D3D3D3D003D3D3F
:100ADB003D3D3D003D3D3D3D3D3D003D3D3D3D3DB5
:100AEB003D3D003D3D3D3D3D3D3D3D003D3D3D3DA5
:100AFB003D3D3D3D3D003D3D3D3D3D3D3D3D3D3D58
:100B0B00003D3D3D3D3D3D3D3D3D3D3D003D3D3D84
:100B1B003D3D3D3D3D3D3D3D3D0045313431303466
:100B2B0030363400426573743100576F7273743210
:100B3B000046696E616C206578616D202020202055
:020B4B00200088
:100D470002080000020A0000020C0000110E4669AA
:0F0D57006E616C206578616D20202020202000C7
:10097000758902D2BAD2A9E4F58AF58CC288C28AF6
:10098000D2A8D2AAD2AFFDFC7F38120D6CE4FDFCD8
:100990007F0F120D6CE4FDFC7F06120D6C120D67CB
:1009A000E50945086003020AB9E50B450A60030240
:1009B0000AB9120D68E4FDFC7F80120D6CE580C35E
:1009C000945150087BFF7A0A79BB801EE580C3945E
:1009D000AB50087BFF7A0A79BF800FAF80C3748069
:1009E000948150097BFF7A0A79C6120D08E4FDFC58
:1009F0007FC0120D6CE580C3941450097BFF7A0A06
:100A000079CB020AACE580C3942850097BFF7A0AAF
:100A100079CD020AACE580C3943C50097BFF7A0A89
:100A200079D0020AACE580C3945050087BFF7A0A63
:100A300079D48078E580C3947850087BFF7A0A796E
:100A4000D98069E580C3948C50087BFF7A0A79DFEE
:100A5000805AE580C394A050087BFF7A0A79E6802B
:100A60004BE580C394B450087BFF7A0A79EE803C52
:100A7000E580C394C850087BFF7A0A79F7802DE59A
:100A800080C394DC50087BFF7A0B7901801EE580DF
:100A9000C394F050087BFF7A0B790C800FAF80C3B2
:100AA0007480948150097BFF7A0B7918120D087FAE
:0B0AB000FF7E3F120D990209A080FE9E
:03000300020800F0
:10080000C0E0C0F0C083C082C0D075D000C000C0BE
:1008100001C002C003C004C005C006C007E5094509
:1008200008700CFDFC7F08120D6CC2A002094AE59D
:100830000964014508600302091BFDFC7F0F120DCE
:100840006C120D67E4FDFC7F80120D6C7BFF7A0B50
:100850007925120D08E4FDFC7F40120D6C7D017CB2
:1008600000E4FF120D6C7D017C007F0E120D6C7D8B
:10087000017C007F1F120D6C7D017C007F15120D25
:100880006C7D017C007F0E120D6C7D017C007F0E63
:10089000120D6C7D017C00E4FF120D6C7D017C006B
:1008A000E4FF120D6CE4FDFC7F48120D6C7D017CB1
:1008B00000E4FF120D6C7D017C007F0A120D6C7D3F
:1008C000017C007F0A120D6C7D017C00E4FF120D9B
:1008D0006C7D017C007F11120D6C7D017C007F0E10
:1008E000120D6C7D017C00E4FF120D6C7D017C001B
:1008F000E4FF120D6CE4FDFC7F8F120D6C7D017C1A
:1009000000E4FF120D6CE4FDFC7FCF120D6C7D0145
:100910007C007F01120D6CC2A1802FE509640245A5
:10092000087027C2A2120D68E4FDFC7F80120D6CD6
:100930007BFF7A0B792F120D08E4FDFC7FC0120DAE
:100940006C7BFF7A0B7935120D080509E5097002F9
:100950000508120D95D007D006D005D004D003D0DD
:1009600002D001D000D0D0D082D083D0F0D0E032FD
:03001300020BD904
:100BD900C0E0C0F0C083C082C0D075D000C000C0E2
:100BE90001C002C003C004C005C006C007E50B452B
:100BF9000A7016120D68E4FDFC7F80120D6C7BFFF4
:100C09007A0B793C120D08801AE50B6401450A70CC
:100C190006D28CC2A0800CE50B6402450A7004C29E
:100C29008CC28D050BE50B7002050A120D95D007D4
:100C3900D006D005D004D003D002D001D000D0D046
:090C4900D082D083D0F0D0E0325B
:03000B00020C5292
:100C5200C0E0C0F0C083C082C0D075D000C000C068
:0D0C620001C002C003C004C005C006C007E9
:100C6F00C2A1C2A2120D67E4FDFC7F80120D6C7B46
:100C7F00007A00790E120D08AF1D7D0F7C00740DE8
:100C8F002DF8E6FE740E2DF8A606ED1D70011CED75
:080C9F004C70EB8F0E120D9555
:100CA700D007D006D005D004D003D002D001D000A1
:0B0CB700D0D0D082D083D0F0D0E0324B
:060D08008B2E8A2F8930BA
:100D0E00E4F531F532AB2EAA2FA930120D80C3E5D2
:100D1E00329FE5319E5021AB2EAA2FA9308532820B
:100D2E00853183120CC2FF7D017C00120D6C0532E1
:080D3E00E53270D1053180CDD2
:010D4600228A
:050D6700E4FDFC7F012A
:100D6C008F90EC4D24FF92B6D2B77F647E00120DAB
:040D7C0099C2B7223F
:040D950074FFFFFEEA
:0B0D9900EF1FAC0670011E4C70F6222C
:100B5900020970E493A3F8E493A34003F68001F239
:100B690008DFF48029E493A3F85407240CC8C3339D
:100B7900C4540F4420C8834004F456800146F6DF6C
:100B8900E4800B0102040810204080900D47E47EA8
:100B9900019360BCA3FF543F30E509541FFEE49361
:100BA900A360010ECF54C025E060A840B8E493A328
:100BB900FAE493A3F8E493A3C8C582C8CAC583CA53
:100BC900F0A3C8C582C8CAC583CADFE9DEE780BE0B
:010D6600008C
:100CC200BB010CE58229F582E5833AF583E02250E7
:100CD20006E92582F8E622BBFE06E92582F8E22231
:0D0CE200E58229F582E5833AF583E493224B
:100D8000E4FFFE120CEF600C0FEF70010E09E9702A
:050D9000F20A80EF22D1
:100CEF00BB010689828A83E0225002E722BBFE0203
:090CFF00E32289828A83E4932236
:00000001FF
