:0300000002091DD5
:0C091D00787FE4F6D8FD75810A0208001E
:0A09340045313431303430363400E0
:100800007F381209067F0F120906E4FDFC7F0612ED
:100810000909E4FDFC7F01120909E4FDFC7F801257
:1008200009097BFF7A0979341208C6E4FDFC7F4090
:100830001209097D017C00E4FF120909E4FDFC7F37
:10084000411209097D017C007F0A120909E4FDFCBF
:100850007F421209097D017C007F1F120909E4FD16
:10086000FC7F431209097D017C007F1F120909E406
:10087000FDFC7F441209097D017C007F0E120909ED
:10088000E4FDFC7F451209097D017C007F0412090B
:1008900009E4FDFC7F461209097D017C00E4FF129A
:1008A0000909E4FDFC7F471209097D017C00E4FF92
:1008B000120909E4FDFC7FC01209097D017C00E4F6
:0608C000FF12090980FE91
:1008C6008B088A09890AAB08AA09A90A1208EDFF4A
:1008D60060147D017C001209097401250AF50AE4F9
:0708E6003509F50980E0224D
:03090600E4FDFC11
:100909008F90EC4D24FF92B0D2B17F647E00120922
:0409190029C2B1221C
:0B092900EF1FAC0670011E4C70F622A0
:1008ED00BB010689828A83E0225002E722BBFE0209
:0908FD00E32289828A83E493223C
:00000001FF
