:03000000020D47A7
:0C0D4700787FE4F6D8FD75812F020D8E38
:10080000426573743100576F727374320030250083
:100810003D3E003D3D3E003D3D3D3E003D3D3D3DBC
:100820003E003D3D3D3D3D3E003D3D3D3D3D3D3E6F
:10083000003D3D3D3D3D3D3D3E003D3D3D3D3D3D61
:100840003D3D3E0045313431303430363400466968
:100850006E616C206578616D0049206C6F76652053
:10086000656D6265646465642000206C6F76652048
:10087000656D6265646465642073006C6F766520E5
:10088000656D626564646564207379006F766520C8
:10089000656D6265646465642073797300766520B4
:1008A000656D6265646465642073797374006520A6
:1008B000656D626564646564207379737465002096
:1008C000656D6265646465642073797374656D0039
:1008D000656D6265646465642073797374656D2EFB
:1008E000006D6265646465642073797374656D2E50
:1008F00020006265646465642073797374656D2E8D
:1009000020490065646465642073797374656D2E95
:1009100020492000646465642073797374656D2ECA
:100920002049206C006465642073797374656D2EB2
:100930002049206C6F0065642073797374656D2E97
:100940002049206C6F7600642073797374656D2E76
:100950002049206C6F7665002073797374656D2E65
:100960002049206C6F7665200073797374656D2E55
:100970002049206C6F7665206500797374656D2E53
:100980002049206C6F766520656D007374656D2E4F
:100990002049206C6F766520656D620074656D2E50
:1009A0002049206C6F766520656D626500656D2E4F
:1009B0002049206C6F766520656D626564006D2E40
:1009C0002049206C6F766520656D62656464002E39
:1009D0002049206C6F766520656D626564646500F2
:1009E0002049206C6F766520656D6265646465647E
:0109F0000006
:100F340002080000020A0000020C0000180E4920FA
:100F44006C6F766520656D62656464656420737991
:060F54007374656D2E00B0
:100CA700758902D2BAD2A9E4F58AF58CC288C28ABC
:100CB700D2A8D2AAD2AFFDFC7F08120F677F607E51
:100CC700EA120F947F607EEA120F94E4FDFC7F38EE
:100CD700120F67E4FDFC7F0F120F67E4FDFC7F0630
:100CE700120F67E4FDFC7F01120F67E580D394467E
:100CF7005013E4FDFC7F01120F67C2A0D2A1D2A25C
:100D0700120BF78032E580D394A55013E4FDFC7FE6
:100D170001120F67D2A0C2A1D2A2120B188018E548
:100D270080D394FF5011E4FDFC7F01120F67D2A01E
:100D3700D2A1C2A21209F17FFF7E3F120F9480ABAE
:03000300020EBE2C
:100EBE00C0E0C0F0C083C082C0D075D000C000C0FA
:100ECE0001C002C003C004C005C006C007120F90C7
:100EDE00D007D006D005D004D003D002D001D00068
:0B0EEE00D0D0D082D083D0F0D0E03212
:03001300020DD308
:100DD300C0E0C0F0C083C082C0D075D000C000C0E6
:100DE30001C002C003C004C005C006C007E4FDFC87
:100DF3007F01120F67120F627BFF7A087900120ED0
:100E03007FE4FDFC7FC0120F677BFF7A087906122F
:100E13000E7F120F90120F90120F90D007D006D0B2
:100E230005D004D003D002D001D000D0D0D082D0DE
:060E330083D0F0D0E03294
:03000B00020EF9E9
:100EF900C0E0C0F0C083C082C0D075D000C000C0BF
:100F090001C002C003C004C005C006C007120F908B
:100F1900D007D006D005D004D003D002D001D0002C
:0B0F2900D0D0D082D083D0F0D0E032D6
:060E7F008B2B8A2C892D4B
:100E8500E4F52EF52FAB2BAA2CA92D120F7BC3E56C
:100E95002F9FE52E9E5021AB2BAA2CA92D852F82A5
:100EA500852E83120E39FF7D017C00120F67052FF9
:080EB500E52F70D1052E80CD60
:010EBD002212
:0C0F5B0074FFFFFE120F94E4FDFC7F8089
:100F67008F90EC4D24FF92B6D2B77F647E00120FAC
:040F770094C2B72247
:040F900074FFFFFEED
:0B0F9400EF1FAC0670011E4C70F6222F
:100BF700120F627BFF7A08790D120E7FE4FDFC7FEE
:100C0700C0120F677BFF7A087910120E7F120F90C0
:100C1700E4FDFC7FC0120F677BFF7A087913120E81
:100C27007F120F90E4FDFC7FC0120F677BFF7A08ED
:100C37007917120E7F120F90E4FDFC7FC0120F6729
:100C47007BFF7A08791C120E7F120F90E4FDFC7F60
:100C5700C0120F677BFF7A087922120E7F120F905E
:100C6700E4FDFC7FC0120F677BFF7A087929120E1B
:100C77007F120F90E4FDFC7FC0120F677BFF7A089D
:100C87007931120E7F120F90E4FDFC7FC0120F67BF
:100C97007BFF7A08793A120E7F74FFFFFE020F94EA
:100B1800120F627BFF7A087944120E7FE4FDFC7F96
:100B2800C0120F677BFF7A08794E120E7FE4FDFC36
:100B38007F40120F677D017C00E4FF120F677D0183
:100B48007C007F0E120F677D017C007F1F120F67EC
:100B58007D017C007F15120F677D017C007F0E12DE
:100B68000F677D017C007F0E120F677D017C00E41A
:100B7800FF120F677D017C00E4FF120F67E4FDFCA4
:100B88007F48120F677D017C00E4FF120F677D012B
:100B98007C007F0A120F677D017C007F0A120F67B5
:100BA8007D017C00E4FF120F677D017C007F11123C
:100BB8000F677D017C007F0E120F677D017C00E4CA
:100BC800FF120F677D017C00E4FF120F67E4FDFC54
:100BD8007F8F120F677D017C00E4FF120F67E4FD31
:0F0BE800FC7FCF120F677D017C007F01020F673A
:1009F100120F627BFF7A087959120E7F120F5B7B0F
:100A0100FF7A08796A120E7F120F5B7BFF7A0879F1
:100A11007B120E7F120F5B7BFF7A08798C120E7F9F
:100A2100120F5B7BFF7A08799D120E7F120F5B7BA1
:100A3100FF7A0879AE120E7F120F5B7BFF7A08797D
:100A4100BF120E7F120F5B7BFF7A0879D0120E7FE7
:100A5100120F5B7BFF7A0879E1120E7F120F5B7B2D
:100A6100FF7A0879F2120E7F120F5B7BFF7A097908
:100A710003120E7F120F5B7BFF7A097914120E7F2E
:100A8100120F5B7BFF7A097925120E7F120F5B7BB8
:100A9100FF7A097936120E7F120F5B7BFF7A097993
:100AA10047120E7F120F5B7BFF7A097958120E7F76
:100AB100120F5B7BFF7A097969120E7F120F5B7B44
:100AC100FF7A09797A120E7F120F5B7BFF7A09791F
:100AD1008B120E7F120F5B7BFF7A09799C120E7FBE
:100AE100120F5B7BFF7A0979AD120E7F120F5B7BD0
:100AF100FF7A0979BE120E7F120F5B7BFF7A0979AB
:100B0100CF120E7F120F5B7BFF7A0979E0120E7F05
:070B110074FFFFFE020F94C8
:100D5300020CA7E493A3F8E493A34003F68001F203
:100D630008DFF48029E493A3F85407240CC8C333A1
:100D7300C4540F4420C8834004F456800146F6DF70
:100D8300E4800B0102040810204080900F34E47EBD
:100D9300019360BCA3FF543F30E509541FFEE49365
:100DA300A360010ECF54C025E060A840B8E493A32C
:100DB300FAE493A3F8E493A3C8C582C8CAC583CA57
:100DC300F0A3C8C582C8CAC583CADFE9DEE780BE0F
:010F5A000096
:100E3900BB010CE58229F582E5833AF583E022506E
:100E490006E92582F8E622BBFE06E92582F8E222B8
:0D0E5900E58229F582E5833AF583E49322D2
:100F7B00E4FFFE120E66600C0FEF70010E09E970B4
:050F8B00F20A80EF22D4
:100E6600BB010689828A83E0225002E722BBFE028A
:090E7600E32289828A83E49322BD
:00000001FF
