:03000000020C0EE1
:0C0C0E00787FE4F6D8FD758135020C55A6
:100B7C004C4F57004D4944444C45004849474800A8
:100B8C003D003D3D003D3D3D003D3D3D3D003D3D7D
:100B9C003D3D3D003D3D3D3D3D3D003D3D3D3D3DF3
:100BAC003D3D003D3D3D3D3D3D3D3D003D3D3D3DE3
:100BBC003D3D3D3D3D003D3D3D3D3D3D3D3D3D3D96
:100BCC00003D3D3D3D3D3D3D3D3D3D3D003D3D3DC3
:100BDC003D3D3D3D3D3D3D3D3D00453134313034A5
:100BEC0030363400426573743100576F727374324F
:100BFC000046696E616C206578616D202020202094
:020C0C002000C6
:100DAE0002080000020A0000020C0000110E466943
:0F0DBE006E616C206578616D2020202020200060
:10097000758902D2BAD2A9E4F58AF58CC288C28AF6
:10098000D2A8D2AAD2AFFDFC7F38120DD3E4FDFC71
:100990007F0F120DD3E4FDFC7F06120DD3120DCE96
:1009A000E50945086003020AB9E50B450A60030240
:1009B0000AB9120DCFE4FDFC7F80120DD3E580C390
:1009C000945150087BFF7A0B797C801EE580C3949C
:1009D000AB50087BFF7A0B7980800FAF80C37480A7
:1009E000948150097BFF7A0B7987120D6FE4FDFC2F
:1009F0007FC0120DD3E580C3941450097BFF7A0B9E
:100A0000798C020AACE580C3942850097BFF7A0BED
:100A1000798E020AACE580C3943C50097BFF7A0BC7
:100A20007991020AACE580C3945050087BFF7A0BA1
:100A300079958078E580C3947850087BFF7A0B79AC
:100A40009A8069E580C3948C50087BFF7A0B79A06B
:100A5000805AE580C394A050087BFF7A0B79A78069
:100A60004BE580C394B450087BFF7A0B79AF803C90
:100A7000E580C394C850087BFF7A0B79B8802DE5D8
:100A800080C394DC50087BFF7A0B79C2801EE5801E
:100A9000C394F050087BFF7A0B79CD800FAF80C3F1
:100AA0007480948150097BFF7A0B79D9120D6F7F86
:0B0AB000FF7E3F120E000209A080FE36
:03000300020800F0
:10080000C0E0C0F0C083C082C0D075D000C000C0BE
:1008100001C002C003C004C005C006C007E5094509
:1008200008700CFDFC7F08120DD3C2A002094AE536
:100830000964014508600302091BFDFC7F0F120DCE
:10084000D3120DCEE4FDFC7F80120DD37BFF7A0B1B
:1008500079E6120D6FE4FDFC7F40120DD37D017C23
:1008600000E4FF120DD37D017C007F0E120DD37DBD
:10087000017C007F1F120DD37D017C007F15120DBE
:10088000D37D017C007F0E120DD37D017C007F0E95
:10089000120DD37D017C00E4FF120DD37D017C009D
:1008A000E4FF120DD3E4FDFC7F48120DD37D017CE3
:1008B00000E4FF120DD37D017C007F0A120DD37D71
:1008C000017C007F0A120DD37D017C00E4FF120D34
:1008D000D37D017C007F11120DD37D017C007F0E42
:1008E000120DD37D017C00E4FF120DD37D017C004D
:1008F000E4FF120DD3E4FDFC7F8F120DD37D017C4C
:1009000000E4FF120DD3E4FDFC7FCF120DD37D0177
:100910007C007F01120DD3C2A1802FE5096402453E
:10092000087027C2A2120DCFE4FDFC7F80120DD308
:100930007BFF7A0B79F0120D6FE4FDFC7FC0120D86
:10094000D37BFF7A0B79F6120D6F0509E50970026A
:100950000508120DFCD007D006D005D004D003D076
:1009600002D001D000D0D0D082D083D0F0D0E032FD
:03001300020C9A42
:100C9A00C0E0C0F0C083C082C0D075D000C000C020
:100CAA0001C002C003C004C005C006C007E50B4569
:100CBA000A7016120DCFE4FDFC7F80120DD37BFF64
:100CCA007A0B79FD120D6F802AE50B6401450A70D3
:100CDA0006D28CC2A0801CE50B6402450A7008C2C9
:100CEA008CD2A0D28C800CE50B6403450A7004C236
:100CFA008CC28D050BE50B7002050A120DFCD0079C
:100D0A00D006D005D004D003D002D001D000D0D074
:090D1A00D082D083D0F0D0E03289
:03000B00020ABB2B
:100ABB00C0E0C0F0C083C082C0D075D000C000C001
:0D0ACB0001C002C003C004C005C006C00782
:100AD800E50B6401450A703CC2A1C2A2120DCFE425
:100AE800FDFC7F80120DD3120D69851D30752E0017
:100AF800752F0FAF2F740D2FF8E6FE740E2FF8A682
:100B080006E52F152F7002152EE52F452E70E4856A
:100B1800300E8042E50B6402450A703AC2A1C2A2B7
:100B2800120DCFE4FDFC7F80120DD3120D69850EE6
:100B380030752E00752F00AF2F740F2FF8E6FE7456
:100B48000E2FF8A606052FE52F7002052E640F4517
:090B58002E70E485301D120DFC25
:100B6100D007D006D005D004D003D002D001D000E8
:0B0B7100D0D0D082D083D0F0D0E03292
:060D69007B007A00790E08
:060D6F008B318A3289334A
:100D7500E4F534F535AB31AA32A933120DE7C3E5F5
:100D8500359FE5349E5021AB31AA32A93385358292
:100D9500853483120D23FF7D017C00120DD30535AB
:080DA500E53570D1053480CD65
:010DAD002223
:050DCE00E4FDFC7F01C3
:100DD3008F90EC4D24FF92B6D2B77F647E00120E43
:040DE30000C2B72271
:040DFC0074FFFFFE83
:0B0E0000EF1FAC0670011E4C70F622C4
:100C1A00020970E493A3F8E493A34003F68001F277
:100C2A0008DFF48029E493A3F85407240CC8C333DB
:100C3A00C4540F4420C8834004F456800146F6DFAA
:100C4A00E4800B0102040810204080900DAEE47E7F
:100C5A00019360BCA3FF543F30E509541FFEE4939F
:100C6A00A360010ECF54C025E060A840B8E493A366
:100C7A00FAE493A3F8E493A3C8C582C8CAC583CA91
:100C8A00F0A3C8C582C8CAC583CADFE9DEE780BE49
:010DCD000025
:100D2300BB010CE58229F582E5833AF583E0225085
:100D330006E92582F8E622BBFE06E92582F8E222CF
:0D0D4300E58229F582E5833AF583E49322E9
:100DE700E4FFFE120D50600C0FEF70010E09E97061
:050DF700F20A80EF226A
:100D5000BB010689828A83E0225002E722BBFE02A1
:090D6000E32289828A83E49322D4
:00000001FF
