:030000000208AC47
:0C08AC00787FE4F6D8FD7581070208B8DB
:0C08B800C288D2A8D2AFC2B4D2B480FE75
:03000300020800F0
:10080000C0E0C0D0C2B5E590C39400400CE5909420
:1008100019500675A0FF0208A1E590C39419400B7A
:10082000E5909432500575A0FE8076E590C3943231
:10083000400BE590944B500575A0FC8064E590C397
:10084000944B400BE5909464500575A0F88052E5F8
:1008500090C39464400BE590947D500575A0F080A2
:1008600040E590C3947D400BE5909496500575A0AB
:10087000E0802EE590C39496400BE59094AF500530
:1008800075A0C0801CE590C394AF400BE59094C860
:10089000500575A080800AE590C394C8400375A0F8
:0C08A00000D2B5C2B4D2B4D0D0D0E03247
:00000001FF
